{
  "abi": [
    {
      "inputs": [
        {
          "internalType": "function (function (function (function (function (function (function (function () pure external) pure external) pure external) pure external) pure external) pure external) pure external) pure external",
          "name": "",
          "type": "function"
        }
      ],
      "name": "a",
      "outputs": [],
      "stateMutability": "pure",
      "type": "function"
    }
  ],
  "bytecode": {
    "object": "0x6080604052348015600f57600080fd5b5060b88061001e6000396000f3fe6080604052348015600f57600080fd5b506004361060285760003560e01c806326c2915f14602d575b600080fd5b603c6038366004603e565b5050565b005b60008060208385031215605057600080fd5b823567ffffffffffffffff1981168114606857600080fd5b8060601c925063ffffffff8160401c16915050925092905056fea26469706673582212206870d0da42894b5de595bc60098d4a454cc77c49d0ed12be85f5d91f0d260f2964736f6c63430008150033",
    "linkReferences": {}
  },
  "methodIdentifiers": {
    "a(function)": "26c2915f"
  },
  "id": 17
}